{
  "contractName": "Auction",
  "abi": [
    {
      "constant": true,
      "inputs": [],
      "name": "finalHighestBidderAddress",
      "outputs": [
        {
          "name": "",
          "type": "address"
        }
      ],
      "payable": false,
      "stateMutability": "view",
      "type": "function",
      "signature": "0x0bc1d08a"
    },
    {
      "constant": true,
      "inputs": [],
      "name": "initialPrice",
      "outputs": [
        {
          "name": "",
          "type": "uint256"
        }
      ],
      "payable": false,
      "stateMutability": "view",
      "type": "function",
      "signature": "0x1d0806ae"
    },
    {
      "constant": true,
      "inputs": [],
      "name": "outcome",
      "outputs": [
        {
          "name": "",
          "type": "uint8"
        }
      ],
      "payable": false,
      "stateMutability": "view",
      "type": "function",
      "signature": "0x27793f87"
    },
    {
      "constant": true,
      "inputs": [],
      "name": "judgeAddress",
      "outputs": [
        {
          "name": "",
          "type": "address"
        }
      ],
      "payable": false,
      "stateMutability": "view",
      "type": "function",
      "signature": "0x3c03d8be"
    },
    {
      "constant": true,
      "inputs": [],
      "name": "sellerAddress",
      "outputs": [
        {
          "name": "",
          "type": "address"
        }
      ],
      "payable": false,
      "stateMutability": "view",
      "type": "function",
      "signature": "0x3d9b2ae6"
    },
    {
      "constant": true,
      "inputs": [],
      "name": "startTime",
      "outputs": [
        {
          "name": "",
          "type": "uint256"
        }
      ],
      "payable": false,
      "stateMutability": "view",
      "type": "function",
      "signature": "0x78e97925"
    },
    {
      "constant": true,
      "inputs": [],
      "name": "lastBidTimestamp",
      "outputs": [
        {
          "name": "",
          "type": "uint256"
        }
      ],
      "payable": false,
      "stateMutability": "view",
      "type": "function",
      "signature": "0x7d8bdb8a"
    },
    {
      "constant": true,
      "inputs": [],
      "name": "currentHighestBid",
      "outputs": [
        {
          "name": "",
          "type": "uint256"
        }
      ],
      "payable": false,
      "stateMutability": "view",
      "type": "function",
      "signature": "0xcc7d1a0f"
    },
    {
      "constant": true,
      "inputs": [],
      "name": "biddingPeriodDays",
      "outputs": [
        {
          "name": "",
          "type": "uint256"
        }
      ],
      "payable": false,
      "stateMutability": "view",
      "type": "function",
      "signature": "0xd5f0732e"
    },
    {
      "constant": true,
      "inputs": [],
      "name": "minimumPriceIncrement",
      "outputs": [
        {
          "name": "",
          "type": "uint256"
        }
      ],
      "payable": false,
      "stateMutability": "view",
      "type": "function",
      "signature": "0xdb341765"
    },
    {
      "constant": true,
      "inputs": [],
      "name": "currentHighestBidderAddress",
      "outputs": [
        {
          "name": "",
          "type": "address"
        }
      ],
      "payable": false,
      "stateMutability": "view",
      "type": "function",
      "signature": "0xfa9cbf12"
    },
    {
      "inputs": [
        {
          "name": "_sellerAddress",
          "type": "address"
        },
        {
          "name": "_judgeAddress",
          "type": "address"
        },
        {
          "name": "_initialPrice",
          "type": "uint256"
        },
        {
          "name": "_biddingPeriodDays",
          "type": "uint256"
        },
        {
          "name": "_minimumPriceIncrement",
          "type": "uint256"
        }
      ],
      "payable": false,
      "stateMutability": "nonpayable",
      "type": "constructor",
      "signature": "constructor"
    },
    {
      "constant": false,
      "inputs": [],
      "name": "bid",
      "outputs": [],
      "payable": true,
      "stateMutability": "payable",
      "type": "function",
      "signature": "0x1998aeef"
    },
    {
      "constant": false,
      "inputs": [],
      "name": "getHighestBidder",
      "outputs": [
        {
          "name": "",
          "type": "address"
        }
      ],
      "payable": false,
      "stateMutability": "nonpayable",
      "type": "function",
      "signature": "0x003495a4"
    },
    {
      "constant": false,
      "inputs": [],
      "name": "settle",
      "outputs": [],
      "payable": false,
      "stateMutability": "nonpayable",
      "type": "function",
      "signature": "0x11da60b4"
    },
    {
      "constant": false,
      "inputs": [],
      "name": "settleEarly",
      "outputs": [],
      "payable": false,
      "stateMutability": "nonpayable",
      "type": "function",
      "signature": "0x8ee5f77f"
    },
    {
      "constant": false,
      "inputs": [],
      "name": "refund",
      "outputs": [],
      "payable": false,
      "stateMutability": "nonpayable",
      "type": "function",
      "signature": "0x590e1ae3"
    }
  ],
  "bytecode": "0x608060405234801561001057600080fd5b5060405160a0806112df833981018060405260a081101561003057600080fd5b8101908080519060200190929190805190602001909291908051906020019092919080519060200190929190805190602001909291905050508260068190555081600781905550806009819055504260088190555042600481905550600073ffffffffffffffffffffffffffffffffffffffff16600160009054906101000a900473ffffffffffffffffffffffffffffffffffffffff1673ffffffffffffffffffffffffffffffffffffffff1614156101255733600160006101000a81548173ffffffffffffffffffffffffffffffffffffffff021916908373ffffffffffffffffffffffffffffffffffffffff1602179055505b83600060016101000a81548173ffffffffffffffffffffffffffffffffffffffff021916908373ffffffffffffffffffffffffffffffffffffffff16021790555060008060006101000a81548160ff0219169083600281111561018457fe5b021790555050505050506111428061019d6000396000f3fe6080604052600436106100e5576000357c0100000000000000000000000000000000000000000000000000000000900463ffffffff1680623495a4146100ea5780630bc1d08a1461014157806311da60b4146101985780631998aeef146101af5780631d0806ae146101b957806327793f87146101e45780633c03d8be1461021d5780633d9b2ae614610274578063590e1ae3146102cb57806378e97925146102e25780637d8bdb8a1461030d5780638ee5f77f14610338578063cc7d1a0f1461034f578063d5f0732e1461037a578063db341765146103a5578063fa9cbf12146103d0575b600080fd5b3480156100f657600080fd5b506100ff610427565b604051808273ffffffffffffffffffffffffffffffffffffffff1673ffffffffffffffffffffffffffffffffffffffff16815260200191505060405180910390f35b34801561014d57600080fd5b506101566104f2565b604051808273ffffffffffffffffffffffffffffffffffffffff1673ffffffffffffffffffffffffffffffffffffffff16815260200191505060405180910390f35b3480156101a457600080fd5b506101ad610518565b005b6101b7610680565b005b3480156101c557600080fd5b506101ce610adb565b6040518082815260200191505060405180910390f35b3480156101f057600080fd5b506101f9610ae1565b6040518082600281111561020957fe5b60ff16815260200191505060405180910390f35b34801561022957600080fd5b50610232610af3565b604051808273ffffffffffffffffffffffffffffffffffffffff1673ffffffffffffffffffffffffffffffffffffffff16815260200191505060405180910390f35b34801561028057600080fd5b50610289610b19565b604051808273ffffffffffffffffffffffffffffffffffffffff1673ffffffffffffffffffffffffffffffffffffffff16815260200191505060405180910390f35b3480156102d757600080fd5b506102e0610b3f565b005b3480156102ee57600080fd5b506102f7610d06565b6040518082815260200191505060405180910390f35b34801561031957600080fd5b50610322610d0c565b6040518082815260200191505060405180910390f35b34801561034457600080fd5b5061034d610d12565b005b34801561035b57600080fd5b50610364611051565b6040518082815260200191505060405180910390f35b34801561038657600080fd5b5061038f611057565b6040518082815260200191505060405180910390f35b3480156103b157600080fd5b506103ba61105d565b6040518082815260200191505060405180910390f35b3480156103dc57600080fd5b506103e5611063565b604051808273ffffffffffffffffffffffffffffffffffffffff1673ffffffffffffffffffffffffffffffffffffffff16815260200191505060405180910390f35b6000620151806007540260085442031015156104ca576104c9600073ffffffffffffffffffffffffffffffffffffffff16600260009054906101000a900473ffffffffffffffffffffffffffffffffffffffff1673ffffffffffffffffffffffffffffffffffffffff16141561049e5760016104a1565b60025b600260009054906101000a900473ffffffffffffffffffffffffffffffffffffffff16611089565b5b600260009054906101000a900473ffffffffffffffffffffffffffffffffffffffff16905090565b600360009054906101000a900473ffffffffffffffffffffffffffffffffffffffff1681565b60028081111561052457fe5b6000809054906101000a900460ff16600281111561053e57fe5b14151561054a57600080fd5b600060019054906101000a900473ffffffffffffffffffffffffffffffffffffffff1673ffffffffffffffffffffffffffffffffffffffff163373ffffffffffffffffffffffffffffffffffffffff1614806105f35750600160009054906101000a900473ffffffffffffffffffffffffffffffffffffffff1673ffffffffffffffffffffffffffffffffffffffff163373ffffffffffffffffffffffffffffffffffffffff16145b15156105fe57600080fd5b600160009054906101000a900473ffffffffffffffffffffffffffffffffffffffff1673ffffffffffffffffffffffffffffffffffffffff166108fc3073ffffffffffffffffffffffffffffffffffffffff16319081150290604051600060405180830381858888f1935050505015801561067d573d6000803e3d6000fd5b50565b60065434101561078b573373ffffffffffffffffffffffffffffffffffffffff166108fc349081150290604051600060405180830381858888f193505050501580156106d0573d6000803e3d6000fd5b506040517f08c379a00000000000000000000000000000000000000000000000000000000081526004018080602001828103825260478152602001807f496e697469616c20626964206e6f7420686967686572207468616e20696e697481526020017f69616c2070726963652e2052657475726e696e672066756e647320746f20626981526020017f646465722e2e2e0000000000000000000000000000000000000000000000000081525060600191505060405180910390fd5b6009546005540134101561089a573373ffffffffffffffffffffffffffffffffffffffff166108fc349081150290604051600060405180830381858888f193505050501580156107df573d6000803e3d6000fd5b506040517f08c379a00000000000000000000000000000000000000000000000000000000081526004018080602001828103825260438152602001807f4d696e696d756d20707269636520696e6372656d656e74206e6f74207361746981526020017f73666965642e2052657475726e696e672066756e647320746f2062696464657281526020017f2e2e2e000000000000000000000000000000000000000000000000000000000081525060600191505060405180910390fd5b620151806007540260085442031015156109af573373ffffffffffffffffffffffffffffffffffffffff166108fc349081150290604051600060405180830381858888f193505050501580156108f4573d6000803e3d6000fd5b506040517f08c379a000000000000000000000000000000000000000000000000000000000815260040180806020018281038252604a8152602001807f42696464696e6720706572696f6420657870697265642e2052657475726e696e81526020017f672066756e647320746f2062696464657220616e642066696e697368696e672081526020017f61756374696f6e2e2e2e0000000000000000000000000000000000000000000081525060600191505060405180910390fd5b600073ffffffffffffffffffffffffffffffffffffffff16600260009054906101000a900473ffffffffffffffffffffffffffffffffffffffff1673ffffffffffffffffffffffffffffffffffffffff16141515610a8a57600260009054906101000a900473ffffffffffffffffffffffffffffffffffffffff1673ffffffffffffffffffffffffffffffffffffffff166108fc343073ffffffffffffffffffffffffffffffffffffffff1631039081150290604051600060405180830381858888f19350505050158015610a88573d6000803e3d6000fd5b505b3460058190555033600260006101000a81548173ffffffffffffffffffffffffffffffffffffffff021916908373ffffffffffffffffffffffffffffffffffffffff16021790555042600881905550565b60065481565b6000809054906101000a900460ff1681565b600060019054906101000a900473ffffffffffffffffffffffffffffffffffffffff1681565b600160009054906101000a900473ffffffffffffffffffffffffffffffffffffffff1681565b60016002811115610b4c57fe5b6000809054906101000a900460ff166002811115610b6657fe5b141515610b7257600080fd5b600073ffffffffffffffffffffffffffffffffffffffff16600260009054906101000a900473ffffffffffffffffffffffffffffffffffffffff1673ffffffffffffffffffffffffffffffffffffffff1614151515610bd057600080fd5b600260009054906101000a900473ffffffffffffffffffffffffffffffffffffffff1673ffffffffffffffffffffffffffffffffffffffff163373ffffffffffffffffffffffffffffffffffffffff161480610c795750600060019054906101000a900473ffffffffffffffffffffffffffffffffffffffff1673ffffffffffffffffffffffffffffffffffffffff163373ffffffffffffffffffffffffffffffffffffffff16145b1515610c8457600080fd5b600260009054906101000a900473ffffffffffffffffffffffffffffffffffffffff1673ffffffffffffffffffffffffffffffffffffffff166108fc3073ffffffffffffffffffffffffffffffffffffffff16319081150290604051600060405180830381858888f19350505050158015610d03573d6000803e3d6000fd5b50565b60045481565b60085481565b60006002811115610d1f57fe5b6000809054906101000a900460ff166002811115610d3957fe5b141515610dd4576040517f08c379a000000000000000000000000000000000000000000000000000000000815260040180806020018281038252602e8152602001807f466f72206561726c7920736574746c65206f7574636f6d65206d75737420626581526020017f204e4f545f46494e49534845442e00000000000000000000000000000000000081525060400191505060405180910390fd5b600073ffffffffffffffffffffffffffffffffffffffff16600260009054906101000a900473ffffffffffffffffffffffffffffffffffffffff1673ffffffffffffffffffffffffffffffffffffffff1614151515610ec1576040517f08c379a000000000000000000000000000000000000000000000000000000000815260040180806020018281038252602b8152602001807f466f72206561726c7920736574746c652068696768657374206269646465722081526020017f6d7573742065786973742e00000000000000000000000000000000000000000081525060400191505060405180910390fd5b600160009054906101000a900473ffffffffffffffffffffffffffffffffffffffff1673ffffffffffffffffffffffffffffffffffffffff163373ffffffffffffffffffffffffffffffffffffffff16141515610fac576040517f08c379a000000000000000000000000000000000000000000000000000000000815260040180806020018281038252602b8152602001807f466f72206561726c7920736574746c652073656e646572206d7573742062652081526020017f7468652073656c6c65722e00000000000000000000000000000000000000000081525060400191505060405180910390fd5b60026000806101000a81548160ff02191690836002811115610fca57fe5b0217905550600160009054906101000a900473ffffffffffffffffffffffffffffffffffffffff1673ffffffffffffffffffffffffffffffffffffffff166108fc3073ffffffffffffffffffffffffffffffffffffffff16319081150290604051600060405180830381858888f1935050505015801561104e573d6000803e3d6000fd5b50565b60055481565b60075481565b60095481565b600260009054906101000a900473ffffffffffffffffffffffffffffffffffffffff1681565b6000600281111561109657fe5b8260028111156110a257fe5b141515156110af57600080fd5b816000806101000a81548160ff021916908360028111156110cc57fe5b021790555080600360006101000a81548173ffffffffffffffffffffffffffffffffffffffff021916908373ffffffffffffffffffffffffffffffffffffffff160217905550505056fea165627a7a723058203921a2ce3395e0b83260c34b3caa1dcbc2434398ad89137cfcefaf2af19606450029",
  "source": "pragma solidity ^0.5.0;\n\ncontract Auction {\n\n    enum Outcome {\n        NOT_FINISHED,\n        NOT_SUCCESSFUL,\n        SUCCESSFUL\n    }\n\n    Outcome public outcome;\n\n    address public judgeAddress;\n    address payable public sellerAddress;\n\n    address payable public currentHighestBidderAddress;\n    address public finalHighestBidderAddress;\n\n    uint public startTime;\n    uint public currentHighestBid;\n    uint public initialPrice;\n    uint public biddingPeriodDays;\n    uint public lastBidTimestamp;\n    uint public minimumPriceIncrement;\n\n    constructor(address _sellerAddress, address _judgeAddress, uint _initialPrice, uint _biddingPeriodDays, uint _minimumPriceIncrement) public {\n        initialPrice = _initialPrice;\n        biddingPeriodDays = _biddingPeriodDays;\n        minimumPriceIncrement = _minimumPriceIncrement;\n\n        lastBidTimestamp = now;\n        startTime = now;\n\n        if (sellerAddress == address(0)) {\n            sellerAddress = msg.sender;\n        }\n        judgeAddress = _judgeAddress;\n\n        outcome = Outcome.NOT_FINISHED;\n    }\n\n    function bid() public payable {\n        if(msg.value < initialPrice) {\n            msg.sender.transfer(msg.value);\n            revert(\"Initial bid not higher than initial price. Returning funds to bidder...\");\n        }\n\n        else if(msg.value < currentHighestBid + minimumPriceIncrement) {\n            msg.sender.transfer(msg.value);\n            revert(\"Minimum price increment not satisfied. Returning funds to bidder...\");\n        }\n\n        else if(now - lastBidTimestamp >= biddingPeriodDays * 1 days) {\n            msg.sender.transfer(msg.value);\n            revert(\"Bidding period expired. Returning funds to bidder and finishing auction...\");\n        }\n\n        if(currentHighestBidderAddress != address(0)) {\n            currentHighestBidderAddress.transfer(address(this).balance - msg.value);\n        }\n\n        currentHighestBid = msg.value;\n        currentHighestBidderAddress = msg.sender;\n        lastBidTimestamp = now;\n    }\n\n    function getHighestBidder() public returns (address) {\n        if(now - lastBidTimestamp >= biddingPeriodDays * 1 days) {\n            finishAuction(currentHighestBidderAddress != address(0) ? Outcome.SUCCESSFUL : Outcome.NOT_SUCCESSFUL, currentHighestBidderAddress);\n        }\n        return currentHighestBidderAddress;\n    }\n\n    function finishAuction(Outcome _outcome, address _highestBidder) internal {\n        require(_outcome != Outcome.NOT_FINISHED); // This should not happen.\n        outcome = _outcome;\n        finalHighestBidderAddress = _highestBidder;\n    }\n\n    function settle() public {\n        require(outcome == Outcome.SUCCESSFUL);\n        require(msg.sender == judgeAddress || msg.sender == sellerAddress);\n\n        sellerAddress.transfer(address(this).balance);\n    }\n\n    function settleEarly() public {\n        require(outcome == Outcome.NOT_FINISHED, \"For early settle outcome must be NOT_FINISHED.\");\n        require(currentHighestBidderAddress != address(0), \"For early settle highest bidder must exist.\");\n        require(msg.sender == sellerAddress, \"For early settle sender must be the seller.\");\n\n        outcome = Outcome.SUCCESSFUL;\n\n        sellerAddress.transfer(address(this).balance);\n    }\n\n    function refund() public {\n        require(outcome == Outcome.NOT_SUCCESSFUL);\n        require(currentHighestBidderAddress != address(0));\n        require(msg.sender == currentHighestBidderAddress || msg.sender == judgeAddress);\n\n        currentHighestBidderAddress.transfer(address(this).balance);\n    }\n}\n",
  "sourcePath": "/Users/mateo/Desktop/FER/SEM3/PROJEKT_2/auction/contracts/Auction.sol",
  "compiler": {
    "name": "solc",
    "version": "0.5.0+commit.1d4f565a.Emscripten.clang"
  },
  "schemaVersion": "3.0.1",
  "updatedAt": "2019-01-06T13:01:33.436Z",
  "devdoc": {
    "methods": {}
  },
  "userdoc": {
    "methods": {}
  }
}