{
  "contractName": "Auction",
  "abi": [
    {
      "constant": true,
      "inputs": [],
      "name": "initialPrice",
      "outputs": [
        {
          "name": "",
          "type": "uint256"
        }
      ],
      "payable": false,
      "stateMutability": "view",
      "type": "function",
      "signature": "0x1d0806ae"
    },
    {
      "constant": true,
      "inputs": [],
      "name": "outcome",
      "outputs": [
        {
          "name": "",
          "type": "uint8"
        }
      ],
      "payable": false,
      "stateMutability": "view",
      "type": "function",
      "signature": "0x27793f87"
    },
    {
      "constant": true,
      "inputs": [],
      "name": "judgeAddress",
      "outputs": [
        {
          "name": "",
          "type": "address"
        }
      ],
      "payable": false,
      "stateMutability": "view",
      "type": "function",
      "signature": "0x3c03d8be"
    },
    {
      "constant": true,
      "inputs": [],
      "name": "sellerAddress",
      "outputs": [
        {
          "name": "",
          "type": "address"
        }
      ],
      "payable": false,
      "stateMutability": "view",
      "type": "function",
      "signature": "0x3d9b2ae6"
    },
    {
      "constant": true,
      "inputs": [],
      "name": "biddingPeriod",
      "outputs": [
        {
          "name": "",
          "type": "uint256"
        }
      ],
      "payable": false,
      "stateMutability": "view",
      "type": "function",
      "signature": "0x5f8909bd"
    },
    {
      "constant": true,
      "inputs": [],
      "name": "startTime",
      "outputs": [
        {
          "name": "",
          "type": "uint256"
        }
      ],
      "payable": false,
      "stateMutability": "view",
      "type": "function",
      "signature": "0x78e97925"
    },
    {
      "constant": true,
      "inputs": [],
      "name": "currentTime",
      "outputs": [
        {
          "name": "",
          "type": "uint256"
        }
      ],
      "payable": false,
      "stateMutability": "view",
      "type": "function",
      "signature": "0xd18e81b3"
    },
    {
      "constant": true,
      "inputs": [],
      "name": "highestBid",
      "outputs": [
        {
          "name": "",
          "type": "uint256"
        }
      ],
      "payable": false,
      "stateMutability": "view",
      "type": "function",
      "signature": "0xd57bde79"
    },
    {
      "constant": true,
      "inputs": [],
      "name": "minimumPriceIncrement",
      "outputs": [
        {
          "name": "",
          "type": "uint256"
        }
      ],
      "payable": false,
      "stateMutability": "view",
      "type": "function",
      "signature": "0xdb341765"
    },
    {
      "constant": true,
      "inputs": [],
      "name": "highestBidderAddress",
      "outputs": [
        {
          "name": "",
          "type": "address"
        }
      ],
      "payable": false,
      "stateMutability": "view",
      "type": "function",
      "signature": "0xf85fe8ad"
    },
    {
      "inputs": [
        {
          "name": "_sellerAddress",
          "type": "address"
        },
        {
          "name": "_judgeAddress",
          "type": "address"
        },
        {
          "name": "_initialPrice",
          "type": "uint256"
        },
        {
          "name": "_biddingPeriodSeconds",
          "type": "uint256"
        },
        {
          "name": "_minimumPriceIncrement",
          "type": "uint256"
        }
      ],
      "payable": false,
      "stateMutability": "nonpayable",
      "type": "constructor",
      "signature": "constructor"
    },
    {
      "constant": false,
      "inputs": [],
      "name": "bid",
      "outputs": [],
      "payable": true,
      "stateMutability": "payable",
      "type": "function",
      "signature": "0x1998aeef"
    },
    {
      "constant": false,
      "inputs": [],
      "name": "settle",
      "outputs": [],
      "payable": false,
      "stateMutability": "nonpayable",
      "type": "function",
      "signature": "0x11da60b4"
    },
    {
      "constant": false,
      "inputs": [
        {
          "name": "_currentTime",
          "type": "uint256"
        }
      ],
      "name": "setCurrentTime",
      "outputs": [],
      "payable": false,
      "stateMutability": "nonpayable",
      "type": "function",
      "signature": "0x22f8e566"
    }
  ],
  "bytecode": "0x608060405234801561001057600080fd5b5060405160a080610c83833981018060405260a081101561003057600080fd5b8101908080519060200190929190805190602001909291908051906020019092919080519060200190929190805190602001909291905050508260068190555081600781905550806008819055506000600381905550600060048190555084600160006101000a81548173ffffffffffffffffffffffffffffffffffffffff021916908373ffffffffffffffffffffffffffffffffffffffff16021790555083600060016101000a81548173ffffffffffffffffffffffffffffffffffffffff021916908373ffffffffffffffffffffffffffffffffffffffff16021790555060008060006101000a81548160ff0219169083600381111561012e57fe5b02179055505050505050610b3c806101476000396000f3fe6080604052600436106100c5576000357c0100000000000000000000000000000000000000000000000000000000900463ffffffff16806311da60b4146100ca5780631998aeef146100e15780631d0806ae146100eb57806322f8e5661461011657806327793f87146101515780633c03d8be1461018a5780633d9b2ae6146101e15780635f8909bd1461023857806378e9792514610263578063d18e81b31461028e578063d57bde79146102b9578063db341765146102e4578063f85fe8ad1461030f575b600080fd5b3480156100d657600080fd5b506100df610366565b005b6100e96104a2565b005b3480156100f757600080fd5b506101006108f2565b6040518082815260200191505060405180910390f35b34801561012257600080fd5b5061014f6004803603602081101561013957600080fd5b81019080803590602001909291905050506108f8565b005b34801561015d57600080fd5b50610166610983565b6040518082600381111561017657fe5b60ff16815260200191505060405180910390f35b34801561019657600080fd5b5061019f610995565b604051808273ffffffffffffffffffffffffffffffffffffffff1673ffffffffffffffffffffffffffffffffffffffff16815260200191505060405180910390f35b3480156101ed57600080fd5b506101f66109bb565b604051808273ffffffffffffffffffffffffffffffffffffffff1673ffffffffffffffffffffffffffffffffffffffff16815260200191505060405180910390f35b34801561024457600080fd5b5061024d6109e1565b6040518082815260200191505060405180910390f35b34801561026f57600080fd5b506102786109e7565b6040518082815260200191505060405180910390f35b34801561029a57600080fd5b506102a36109ed565b6040518082815260200191505060405180910390f35b3480156102c557600080fd5b506102ce6109f3565b6040518082815260200191505060405180910390f35b3480156102f057600080fd5b506102f96109f9565b6040518082815260200191505060405180910390f35b34801561031b57600080fd5b506103246109ff565b604051808273ffffffffffffffffffffffffffffffffffffffff1673ffffffffffffffffffffffffffffffffffffffff16815260200191505060405180910390f35b61036e610a25565b6002600381111561037b57fe5b6000809054906101000a900460ff16600381111561039557fe5b1415156103a157600080fd5b600060019054906101000a900473ffffffffffffffffffffffffffffffffffffffff1673ffffffffffffffffffffffffffffffffffffffff163373ffffffffffffffffffffffffffffffffffffffff161415156103fd57600080fd5b60036000806101000a81548160ff0219169083600381111561041b57fe5b0217905550600160009054906101000a900473ffffffffffffffffffffffffffffffffffffffff1673ffffffffffffffffffffffffffffffffffffffff166108fc3073ffffffffffffffffffffffffffffffffffffffff16319081150290604051600060405180830381858888f1935050505015801561049f573d6000803e3d6000fd5b50565b6104aa610a25565b600060038111156104b757fe5b6000809054906101000a900460ff1660038111156104d157fe5b1415156105b3573373ffffffffffffffffffffffffffffffffffffffff166108fc349081150290604051600060405180830381858888f1935050505015801561051e573d6000803e3d6000fd5b506040517f08c379a00000000000000000000000000000000000000000000000000000000081526004018080602001828103825260328152602001807f41756374696f6e206861732066696e69736865642c2063616e6e6f742062696481526020017f2e2052657475726e696e672066756e64732e000000000000000000000000000081525060400191505060405180910390fd5b6006543410156106be573373ffffffffffffffffffffffffffffffffffffffff166108fc349081150290604051600060405180830381858888f19350505050158015610603573d6000803e3d6000fd5b506040517f08c379a00000000000000000000000000000000000000000000000000000000081526004018080602001828103825260478152602001807f496e697469616c20626964206e6f7420686967686572207468616e20696e697481526020017f69616c2070726963652e2052657475726e696e672066756e647320746f20626981526020017f646465722e2e2e0000000000000000000000000000000000000000000000000081525060600191505060405180910390fd5b600854600554013410156107cd573373ffffffffffffffffffffffffffffffffffffffff166108fc349081150290604051600060405180830381858888f19350505050158015610712573d6000803e3d6000fd5b506040517f08c379a00000000000000000000000000000000000000000000000000000000081526004018080602001828103825260438152602001807f4d696e696d756d20707269636520696e6372656d656e74206e6f74207361746981526020017f73666965642e2052657475726e696e672066756e647320746f2062696464657281526020017f2e2e2e000000000000000000000000000000000000000000000000000000000081525060600191505060405180910390fd5b600073ffffffffffffffffffffffffffffffffffffffff16600260009054906101000a900473ffffffffffffffffffffffffffffffffffffffff1673ffffffffffffffffffffffffffffffffffffffff161415156108a857600260009054906101000a900473ffffffffffffffffffffffffffffffffffffffff1673ffffffffffffffffffffffffffffffffffffffff166108fc343073ffffffffffffffffffffffffffffffffffffffff1631039081150290604051600060405180830381858888f193505050501580156108a6573d6000803e3d6000fd5b505b3460058190555033600260006101000a81548173ffffffffffffffffffffffffffffffffffffffff021916908373ffffffffffffffffffffffffffffffffffffffff160217905550565b60065481565b60045481111515610971576040517f08c379a000000000000000000000000000000000000000000000000000000000815260040180806020018281038252601e8152602001807f54696d652063616e206f6e6c792062652077696e6420666f72776172642e000081525060200191505060405180910390fd5b80600481905550610980610a25565b50565b6000809054906101000a900460ff1681565b600060019054906101000a900473ffffffffffffffffffffffffffffffffffffffff1681565b600160009054906101000a900473ffffffffffffffffffffffffffffffffffffffff1681565b60075481565b60035481565b60045481565b60055481565b60085481565b600260009054906101000a900473ffffffffffffffffffffffffffffffffffffffff1681565b6001600754026003546004540310158015610a645750600380811115610a4757fe5b6000809054906101000a900460ff166003811115610a6157fe5b14155b15610b0e57600073ffffffffffffffffffffffffffffffffffffffff16600260009054906101000a900473ffffffffffffffffffffffffffffffffffffffff1673ffffffffffffffffffffffffffffffffffffffff16141515610ae95760026000806101000a81548160ff02191690836003811115610adf57fe5b0217905550610b0d565b60016000806101000a81548160ff02191690836003811115610b0757fe5b02179055505b5b56fea165627a7a72305820a750be05f13c72e5a90357493f41a2ced1648adc74f808f07e13a36cf2e0e5d50029",
  "source": "pragma solidity ^0.5.0;\n\ncontract Auction {\n\n    enum Outcome {\n        NOT_FINISHED,\n        NOT_SUCCESSFUL,\n        SUCCESSFUL,\n        SETTLED\n    }\n\n    Outcome public outcome;\n\n    address payable public judgeAddress;\n    address payable public sellerAddress;\n    address payable public highestBidderAddress;\n\n    uint public startTime;\n    uint public currentTime;\n    uint public highestBid;\n    uint public initialPrice;\n    uint public biddingPeriod;\n    uint public minimumPriceIncrement;\n\n    constructor(address payable _sellerAddress, address payable _judgeAddress, uint _initialPrice, uint _biddingPeriodSeconds, uint _minimumPriceIncrement) public {\n        initialPrice = _initialPrice;\n        biddingPeriod = _biddingPeriodSeconds;\n        minimumPriceIncrement = _minimumPriceIncrement;\n\n        startTime = 0;\n        currentTime = 0;\n\n        sellerAddress = _sellerAddress;\n        judgeAddress = _judgeAddress;\n\n        outcome = Outcome.NOT_FINISHED;\n    }\n\n    function bid() public payable {\n        refreshOutcome();\n\n        if(outcome != Outcome.NOT_FINISHED) {\n            msg.sender.transfer(msg.value);\n            revert(\"Auction has finished, cannot bid. Returning funds.\");\n        }\n\n        if(msg.value < initialPrice) {\n            msg.sender.transfer(msg.value);\n            revert(\"Initial bid not higher than initial price. Returning funds to bidder...\");\n        }\n\n        if(msg.value < highestBid + minimumPriceIncrement) {\n            msg.sender.transfer(msg.value);\n            revert(\"Minimum price increment not satisfied. Returning funds to bidder...\");\n        }\n\n        if(highestBidderAddress != address(0)) {\n            highestBidderAddress.transfer(address(this).balance - msg.value);\n        }\n\n        highestBid = msg.value;\n        highestBidderAddress = msg.sender;\n    }\n\n    function settle() public {\n        refreshOutcome();\n\n        require(outcome == Outcome.SUCCESSFUL);\n        require(msg.sender == judgeAddress);\n\n        outcome = Outcome.SETTLED;\n\n        sellerAddress.transfer(address(this).balance);\n    }\n\n    function refreshOutcome() internal {\n        if(currentTime - startTime >= biddingPeriod * 1 seconds && outcome != Outcome.SETTLED) {\n            if(highestBidderAddress != address(0)) {\n                outcome = Outcome.SUCCESSFUL;\n            } else {\n                outcome = Outcome.NOT_SUCCESSFUL;\n            }\n        }\n    }\n\n    function setCurrentTime(uint _currentTime) public {\n        require(_currentTime > currentTime, \"Time can only be wind forward.\");\n        currentTime = _currentTime;\n\n        refreshOutcome();\n    }\n}\n",
  "sourcePath": "/Users/mateo/Desktop/FER/SEM3/PROJEKT_2/auction/contracts/Auction.sol",
  "compiler": {
    "name": "solc",
    "version": "0.5.0+commit.1d4f565a.Emscripten.clang"
  },
  "schemaVersion": "3.0.1",
  "updatedAt": "2019-01-24T13:33:45.036Z",
  "devdoc": {
    "methods": {}
  },
  "userdoc": {
    "methods": {}
  }
}