{
  "contractName": "Auction",
  "abi": [
    {
      "constant": true,
      "inputs": [],
      "name": "initialPrice",
      "outputs": [
        {
          "name": "",
          "type": "uint256"
        }
      ],
      "payable": false,
      "stateMutability": "view",
      "type": "function",
      "signature": "0x1d0806ae"
    },
    {
      "constant": true,
      "inputs": [],
      "name": "outcome",
      "outputs": [
        {
          "name": "",
          "type": "uint8"
        }
      ],
      "payable": false,
      "stateMutability": "view",
      "type": "function",
      "signature": "0x27793f87"
    },
    {
      "constant": true,
      "inputs": [],
      "name": "judgeAddress",
      "outputs": [
        {
          "name": "",
          "type": "address"
        }
      ],
      "payable": false,
      "stateMutability": "view",
      "type": "function",
      "signature": "0x3c03d8be"
    },
    {
      "constant": true,
      "inputs": [],
      "name": "sellerAddress",
      "outputs": [
        {
          "name": "",
          "type": "address"
        }
      ],
      "payable": false,
      "stateMutability": "view",
      "type": "function",
      "signature": "0x3d9b2ae6"
    },
    {
      "constant": true,
      "inputs": [],
      "name": "biddingPeriod",
      "outputs": [
        {
          "name": "",
          "type": "uint256"
        }
      ],
      "payable": false,
      "stateMutability": "view",
      "type": "function",
      "signature": "0x5f8909bd"
    },
    {
      "constant": true,
      "inputs": [],
      "name": "startTime",
      "outputs": [
        {
          "name": "",
          "type": "uint256"
        }
      ],
      "payable": false,
      "stateMutability": "view",
      "type": "function",
      "signature": "0x78e97925"
    },
    {
      "constant": true,
      "inputs": [],
      "name": "lastBidTimestamp",
      "outputs": [
        {
          "name": "",
          "type": "uint256"
        }
      ],
      "payable": false,
      "stateMutability": "view",
      "type": "function",
      "signature": "0x7d8bdb8a"
    },
    {
      "constant": true,
      "inputs": [],
      "name": "currentHighestBid",
      "outputs": [
        {
          "name": "",
          "type": "uint256"
        }
      ],
      "payable": false,
      "stateMutability": "view",
      "type": "function",
      "signature": "0xcc7d1a0f"
    },
    {
      "constant": true,
      "inputs": [],
      "name": "currentTime",
      "outputs": [
        {
          "name": "",
          "type": "uint256"
        }
      ],
      "payable": false,
      "stateMutability": "view",
      "type": "function",
      "signature": "0xd18e81b3"
    },
    {
      "constant": true,
      "inputs": [],
      "name": "minimumPriceIncrement",
      "outputs": [
        {
          "name": "",
          "type": "uint256"
        }
      ],
      "payable": false,
      "stateMutability": "view",
      "type": "function",
      "signature": "0xdb341765"
    },
    {
      "constant": true,
      "inputs": [],
      "name": "currentHighestBidderAddress",
      "outputs": [
        {
          "name": "",
          "type": "address"
        }
      ],
      "payable": false,
      "stateMutability": "view",
      "type": "function",
      "signature": "0xfa9cbf12"
    },
    {
      "inputs": [
        {
          "name": "_sellerAddress",
          "type": "address"
        },
        {
          "name": "_judgeAddress",
          "type": "address"
        },
        {
          "name": "_initialPrice",
          "type": "uint256"
        },
        {
          "name": "_biddingPeriodSeconds",
          "type": "uint256"
        },
        {
          "name": "_minimumPriceIncrement",
          "type": "uint256"
        }
      ],
      "payable": false,
      "stateMutability": "nonpayable",
      "type": "constructor",
      "signature": "constructor"
    },
    {
      "constant": false,
      "inputs": [],
      "name": "bid",
      "outputs": [],
      "payable": true,
      "stateMutability": "payable",
      "type": "function",
      "signature": "0x1998aeef"
    },
    {
      "constant": false,
      "inputs": [],
      "name": "settle",
      "outputs": [],
      "payable": false,
      "stateMutability": "nonpayable",
      "type": "function",
      "signature": "0x11da60b4"
    },
    {
      "constant": false,
      "inputs": [],
      "name": "settleEarly",
      "outputs": [],
      "payable": false,
      "stateMutability": "nonpayable",
      "type": "function",
      "signature": "0x8ee5f77f"
    },
    {
      "constant": false,
      "inputs": [
        {
          "name": "_currentTime",
          "type": "uint256"
        }
      ],
      "name": "setCurrentTime",
      "outputs": [],
      "payable": false,
      "stateMutability": "nonpayable",
      "type": "function",
      "signature": "0x22f8e566"
    }
  ],
  "bytecode": "0x608060405234801561001057600080fd5b5060405160a0806110db833981018060405260a081101561003057600080fd5b810190808051906020019092919080519060200190929190805190602001909291908051906020019092919080519060200190929190505050826006819055508160078190555080600981905550600060088190555060006003819055506000600481905550600073ffffffffffffffffffffffffffffffffffffffff16600160009054906101000a900473ffffffffffffffffffffffffffffffffffffffff1673ffffffffffffffffffffffffffffffffffffffff1614156101335733600160006101000a81548173ffffffffffffffffffffffffffffffffffffffff021916908373ffffffffffffffffffffffffffffffffffffffff160217905550610175565b84600160006101000a81548173ffffffffffffffffffffffffffffffffffffffff021916908373ffffffffffffffffffffffffffffffffffffffff1602179055505b83600060016101000a81548173ffffffffffffffffffffffffffffffffffffffff021916908373ffffffffffffffffffffffffffffffffffffffff16021790555060008060006101000a81548160ff021916908360028111156101d457fe5b02179055505050505050610eee806101ed6000396000f3fe6080604052600436106100db576000357c0100000000000000000000000000000000000000000000000000000000900463ffffffff16806311da60b4146100e05780631998aeef146100f75780631d0806ae1461010157806322f8e5661461012c57806327793f87146101675780633c03d8be146101a05780633d9b2ae6146101f75780635f8909bd1461024e57806378e97925146102795780637d8bdb8a146102a45780638ee5f77f146102cf578063cc7d1a0f146102e6578063d18e81b314610311578063db3417651461033c578063fa9cbf1214610367575b600080fd5b3480156100ec57600080fd5b506100f56103be565b005b6100ff61052e565b005b34801561010d57600080fd5b50610116610987565b6040518082815260200191505060405180910390f35b34801561013857600080fd5b506101656004803603602081101561014f57600080fd5b810190808035906020019092919050505061098d565b005b34801561017357600080fd5b5061017c610a18565b6040518082600281111561018c57fe5b60ff16815260200191505060405180910390f35b3480156101ac57600080fd5b506101b5610a2a565b604051808273ffffffffffffffffffffffffffffffffffffffff1673ffffffffffffffffffffffffffffffffffffffff16815260200191505060405180910390f35b34801561020357600080fd5b5061020c610a50565b604051808273ffffffffffffffffffffffffffffffffffffffff1673ffffffffffffffffffffffffffffffffffffffff16815260200191505060405180910390f35b34801561025a57600080fd5b50610263610a76565b6040518082815260200191505060405180910390f35b34801561028557600080fd5b5061028e610a7c565b6040518082815260200191505060405180910390f35b3480156102b057600080fd5b506102b9610a82565b6040518082815260200191505060405180910390f35b3480156102db57600080fd5b506102e4610a88565b005b3480156102f257600080fd5b506102fb610dcf565b6040518082815260200191505060405180910390f35b34801561031d57600080fd5b50610326610dd5565b6040518082815260200191505060405180910390f35b34801561034857600080fd5b50610351610ddb565b6040518082815260200191505060405180910390f35b34801561037357600080fd5b5061037c610de1565b604051808273ffffffffffffffffffffffffffffffffffffffff1673ffffffffffffffffffffffffffffffffffffffff16815260200191505060405180910390f35b6103c6610e07565b6002808111156103d257fe5b6000809054906101000a900460ff1660028111156103ec57fe5b1415156103f857600080fd5b600060019054906101000a900473ffffffffffffffffffffffffffffffffffffffff1673ffffffffffffffffffffffffffffffffffffffff163373ffffffffffffffffffffffffffffffffffffffff1614806104a15750600160009054906101000a900473ffffffffffffffffffffffffffffffffffffffff1673ffffffffffffffffffffffffffffffffffffffff163373ffffffffffffffffffffffffffffffffffffffff16145b15156104ac57600080fd5b600160009054906101000a900473ffffffffffffffffffffffffffffffffffffffff1673ffffffffffffffffffffffffffffffffffffffff166108fc3073ffffffffffffffffffffffffffffffffffffffff16319081150290604051600060405180830381858888f1935050505015801561052b573d6000803e3d6000fd5b50565b610536610e07565b6000600281111561054357fe5b6000809054906101000a900460ff16600281111561055d57fe5b14151561063f573373ffffffffffffffffffffffffffffffffffffffff166108fc349081150290604051600060405180830381858888f193505050501580156105aa573d6000803e3d6000fd5b506040517f08c379a00000000000000000000000000000000000000000000000000000000081526004018080602001828103825260328152602001807f41756374696f6e206861732066696e69736865642c2063616e6e6f742062696481526020017f2e2052657475726e696e672066756e64732e000000000000000000000000000081525060400191505060405180910390fd5b60065434101561074a573373ffffffffffffffffffffffffffffffffffffffff166108fc349081150290604051600060405180830381858888f1935050505015801561068f573d6000803e3d6000fd5b506040517f08c379a00000000000000000000000000000000000000000000000000000000081526004018080602001828103825260478152602001807f496e697469616c20626964206e6f7420686967686572207468616e20696e697481526020017f69616c2070726963652e2052657475726e696e672066756e647320746f20626981526020017f646465722e2e2e0000000000000000000000000000000000000000000000000081525060600191505060405180910390fd5b60095460055401341015610859573373ffffffffffffffffffffffffffffffffffffffff166108fc349081150290604051600060405180830381858888f1935050505015801561079e573d6000803e3d6000fd5b506040517f08c379a00000000000000000000000000000000000000000000000000000000081526004018080602001828103825260438152602001807f4d696e696d756d20707269636520696e6372656d656e74206e6f74207361746981526020017f73666965642e2052657475726e696e672066756e647320746f2062696464657281526020017f2e2e2e000000000000000000000000000000000000000000000000000000000081525060600191505060405180910390fd5b600073ffffffffffffffffffffffffffffffffffffffff16600260009054906101000a900473ffffffffffffffffffffffffffffffffffffffff1673ffffffffffffffffffffffffffffffffffffffff1614151561093457600260009054906101000a900473ffffffffffffffffffffffffffffffffffffffff1673ffffffffffffffffffffffffffffffffffffffff166108fc343073ffffffffffffffffffffffffffffffffffffffff1631039081150290604051600060405180830381858888f19350505050158015610932573d6000803e3d6000fd5b505b3460058190555033600260006101000a81548173ffffffffffffffffffffffffffffffffffffffff021916908373ffffffffffffffffffffffffffffffffffffffff160217905550600454600881905550565b60065481565b60045481111515610a06576040517f08c379a000000000000000000000000000000000000000000000000000000000815260040180806020018281038252601e8152602001807f54696d652063616e206f6e6c792062652077696e6420666f72776172642e000081525060200191505060405180910390fd5b80600481905550610a15610e07565b50565b6000809054906101000a900460ff1681565b600060019054906101000a900473ffffffffffffffffffffffffffffffffffffffff1681565b600160009054906101000a900473ffffffffffffffffffffffffffffffffffffffff1681565b60075481565b60035481565b60085481565b610a90610e07565b60006002811115610a9d57fe5b6000809054906101000a900460ff166002811115610ab757fe5b141515610b52576040517f08c379a000000000000000000000000000000000000000000000000000000000815260040180806020018281038252602e8152602001807f466f72206561726c7920736574746c65206f7574636f6d65206d75737420626581526020017f204e4f545f46494e49534845442e00000000000000000000000000000000000081525060400191505060405180910390fd5b600073ffffffffffffffffffffffffffffffffffffffff16600260009054906101000a900473ffffffffffffffffffffffffffffffffffffffff1673ffffffffffffffffffffffffffffffffffffffff1614151515610c3f576040517f08c379a000000000000000000000000000000000000000000000000000000000815260040180806020018281038252602b8152602001807f466f72206561726c7920736574746c652068696768657374206269646465722081526020017f6d7573742065786973742e00000000000000000000000000000000000000000081525060400191505060405180910390fd5b600160009054906101000a900473ffffffffffffffffffffffffffffffffffffffff1673ffffffffffffffffffffffffffffffffffffffff163373ffffffffffffffffffffffffffffffffffffffff16141515610d2a576040517f08c379a000000000000000000000000000000000000000000000000000000000815260040180806020018281038252602b8152602001807f466f72206561726c7920736574746c652073656e646572206d7573742062652081526020017f7468652073656c6c65722e00000000000000000000000000000000000000000081525060400191505060405180910390fd5b60026000806101000a81548160ff02191690836002811115610d4857fe5b0217905550600160009054906101000a900473ffffffffffffffffffffffffffffffffffffffff1673ffffffffffffffffffffffffffffffffffffffff166108fc3073ffffffffffffffffffffffffffffffffffffffff16319081150290604051600060405180830381858888f19350505050158015610dcc573d6000803e3d6000fd5b50565b60055481565b60045481565b60095481565b600260009054906101000a900473ffffffffffffffffffffffffffffffffffffffff1681565b60016007540260035460045403101515610ec057600073ffffffffffffffffffffffffffffffffffffffff16600260009054906101000a900473ffffffffffffffffffffffffffffffffffffffff1673ffffffffffffffffffffffffffffffffffffffff16141515610e9b5760026000806101000a81548160ff02191690836002811115610e9157fe5b0217905550610ebf565b60016000806101000a81548160ff02191690836002811115610eb957fe5b02179055505b5b56fea165627a7a72305820752cc18f462310c03c12a704d3b1ff9a6ee45b660d5213dac0c4c854350aa2c80029",
  "source": "pragma solidity ^0.5.0;\n\ncontract Auction {\n\n    enum Outcome {\n        NOT_FINISHED,\n        NOT_SUCCESSFUL,\n        SUCCESSFUL\n    }\n\n    Outcome public outcome;\n\n    address payable public judgeAddress;\n    address payable public sellerAddress;\n    address payable public currentHighestBidderAddress;\n\n    uint public startTime;\n    uint public currentTime;\n    uint public currentHighestBid;\n    uint public initialPrice;\n    uint public biddingPeriod;\n    uint public lastBidTimestamp;\n    uint public minimumPriceIncrement;\n\n    constructor(address payable _sellerAddress, address payable _judgeAddress, uint _initialPrice, uint _biddingPeriodSeconds, uint _minimumPriceIncrement) public {\n        initialPrice = _initialPrice;\n        biddingPeriod = _biddingPeriodSeconds;\n        minimumPriceIncrement = _minimumPriceIncrement;\n\n        lastBidTimestamp = 0;\n        startTime = 0;\n        currentTime = 0;\n\n        if (sellerAddress == address(0)) {\n            sellerAddress = msg.sender;\n        } else {\n            sellerAddress = _sellerAddress;\n        }\n        judgeAddress = _judgeAddress;\n\n        outcome = Outcome.NOT_FINISHED;\n    }\n\n    function bid() public payable {\n        refreshOutcome();\n\n        if(outcome != Outcome.NOT_FINISHED) {\n            msg.sender.transfer(msg.value);\n            revert(\"Auction has finished, cannot bid. Returning funds.\");\n        }\n\n        if(msg.value < initialPrice) {\n            msg.sender.transfer(msg.value);\n            revert(\"Initial bid not higher than initial price. Returning funds to bidder...\");\n        }\n\n        if(msg.value < currentHighestBid + minimumPriceIncrement) {\n            msg.sender.transfer(msg.value);\n            revert(\"Minimum price increment not satisfied. Returning funds to bidder...\");\n        }\n\n        if(currentHighestBidderAddress != address(0)) {\n            currentHighestBidderAddress.transfer(address(this).balance - msg.value);\n        }\n\n        currentHighestBid = msg.value;\n        currentHighestBidderAddress = msg.sender;\n        lastBidTimestamp = currentTime;\n    }\n\n    function settle() public {\n        refreshOutcome();\n\n        require(outcome == Outcome.SUCCESSFUL);\n        require(msg.sender == judgeAddress || msg.sender == sellerAddress);\n\n        sellerAddress.transfer(address(this).balance);\n    }\n\n    function settleEarly() public {\n        refreshOutcome();\n\n        require(outcome == Outcome.NOT_FINISHED, \"For early settle outcome must be NOT_FINISHED.\");\n        require(currentHighestBidderAddress != address(0), \"For early settle highest bidder must exist.\");\n        require(msg.sender == sellerAddress, \"For early settle sender must be the seller.\");\n\n        outcome = Outcome.SUCCESSFUL;\n\n        sellerAddress.transfer(address(this).balance);\n    }\n\n    function refreshOutcome() internal {\n        if(currentTime - startTime >= biddingPeriod * 1 seconds) {\n            if(currentHighestBidderAddress != address(0)) {\n                outcome = Outcome.SUCCESSFUL;\n            } else {\n                outcome = Outcome.NOT_SUCCESSFUL;\n            }\n        }\n    }\n\n    function setCurrentTime(uint _currentTime) public {\n        require(_currentTime > currentTime, \"Time can only be wind forward.\");\n        currentTime = _currentTime;\n\n        refreshOutcome();\n    }\n}\n",
  "sourcePath": "/Users/mateo/Desktop/FER/SEM3/PROJEKT_2/auction/contracts/Auction.sol",
  "compiler": {
    "name": "solc",
    "version": "0.5.0+commit.1d4f565a.Emscripten.clang"
  },
  "schemaVersion": "3.0.1",
  "updatedAt": "2019-01-20T16:11:50.926Z",
  "devdoc": {
    "methods": {}
  },
  "userdoc": {
    "methods": {}
  }
}