{
  "contractName": "Auction",
  "abi": [
    {
      "constant": true,
      "inputs": [],
      "name": "finalHighestBidderAddress",
      "outputs": [
        {
          "name": "",
          "type": "address"
        }
      ],
      "payable": false,
      "stateMutability": "view",
      "type": "function",
      "signature": "0x0bc1d08a"
    },
    {
      "constant": true,
      "inputs": [],
      "name": "initialPrice",
      "outputs": [
        {
          "name": "",
          "type": "uint256"
        }
      ],
      "payable": false,
      "stateMutability": "view",
      "type": "function",
      "signature": "0x1d0806ae"
    },
    {
      "constant": true,
      "inputs": [],
      "name": "outcome",
      "outputs": [
        {
          "name": "",
          "type": "uint8"
        }
      ],
      "payable": false,
      "stateMutability": "view",
      "type": "function",
      "signature": "0x27793f87"
    },
    {
      "constant": true,
      "inputs": [],
      "name": "judgeAddress",
      "outputs": [
        {
          "name": "",
          "type": "address"
        }
      ],
      "payable": false,
      "stateMutability": "view",
      "type": "function",
      "signature": "0x3c03d8be"
    },
    {
      "constant": true,
      "inputs": [],
      "name": "sellerAddress",
      "outputs": [
        {
          "name": "",
          "type": "address"
        }
      ],
      "payable": false,
      "stateMutability": "view",
      "type": "function",
      "signature": "0x3d9b2ae6"
    },
    {
      "constant": true,
      "inputs": [],
      "name": "biddingPeriod",
      "outputs": [
        {
          "name": "",
          "type": "uint256"
        }
      ],
      "payable": false,
      "stateMutability": "view",
      "type": "function",
      "signature": "0x5f8909bd"
    },
    {
      "constant": true,
      "inputs": [],
      "name": "startTime",
      "outputs": [
        {
          "name": "",
          "type": "uint256"
        }
      ],
      "payable": false,
      "stateMutability": "view",
      "type": "function",
      "signature": "0x78e97925"
    },
    {
      "constant": true,
      "inputs": [],
      "name": "lastBidTimestamp",
      "outputs": [
        {
          "name": "",
          "type": "uint256"
        }
      ],
      "payable": false,
      "stateMutability": "view",
      "type": "function",
      "signature": "0x7d8bdb8a"
    },
    {
      "constant": true,
      "inputs": [],
      "name": "currentHighestBid",
      "outputs": [
        {
          "name": "",
          "type": "uint256"
        }
      ],
      "payable": false,
      "stateMutability": "view",
      "type": "function",
      "signature": "0xcc7d1a0f"
    },
    {
      "constant": true,
      "inputs": [],
      "name": "currentTime",
      "outputs": [
        {
          "name": "",
          "type": "uint256"
        }
      ],
      "payable": false,
      "stateMutability": "view",
      "type": "function",
      "signature": "0xd18e81b3"
    },
    {
      "constant": true,
      "inputs": [],
      "name": "minimumPriceIncrement",
      "outputs": [
        {
          "name": "",
          "type": "uint256"
        }
      ],
      "payable": false,
      "stateMutability": "view",
      "type": "function",
      "signature": "0xdb341765"
    },
    {
      "constant": true,
      "inputs": [],
      "name": "currentHighestBidderAddress",
      "outputs": [
        {
          "name": "",
          "type": "address"
        }
      ],
      "payable": false,
      "stateMutability": "view",
      "type": "function",
      "signature": "0xfa9cbf12"
    },
    {
      "inputs": [
        {
          "name": "_sellerAddress",
          "type": "address"
        },
        {
          "name": "_judgeAddress",
          "type": "address"
        },
        {
          "name": "_initialPrice",
          "type": "uint256"
        },
        {
          "name": "_biddingPeriodSeconds",
          "type": "uint256"
        },
        {
          "name": "_minimumPriceIncrement",
          "type": "uint256"
        }
      ],
      "payable": false,
      "stateMutability": "nonpayable",
      "type": "constructor",
      "signature": "constructor"
    },
    {
      "constant": false,
      "inputs": [],
      "name": "bid",
      "outputs": [],
      "payable": true,
      "stateMutability": "payable",
      "type": "function",
      "signature": "0x1998aeef"
    },
    {
      "constant": false,
      "inputs": [],
      "name": "settle",
      "outputs": [],
      "payable": false,
      "stateMutability": "nonpayable",
      "type": "function",
      "signature": "0x11da60b4"
    },
    {
      "constant": false,
      "inputs": [],
      "name": "settleEarly",
      "outputs": [],
      "payable": false,
      "stateMutability": "nonpayable",
      "type": "function",
      "signature": "0x8ee5f77f"
    },
    {
      "constant": false,
      "inputs": [],
      "name": "refund",
      "outputs": [],
      "payable": false,
      "stateMutability": "nonpayable",
      "type": "function",
      "signature": "0x590e1ae3"
    },
    {
      "constant": false,
      "inputs": [
        {
          "name": "_currentTime",
          "type": "uint256"
        }
      ],
      "name": "setCurrentTime",
      "outputs": [],
      "payable": false,
      "stateMutability": "nonpayable",
      "type": "function",
      "signature": "0x22f8e566"
    }
  ],
  "bytecode": "0x608060405234801561001057600080fd5b5060405160a080611306833981018060405260a081101561003057600080fd5b810190808051906020019092919080519060200190929190805190602001909291908051906020019092919080519060200190929190505050826007819055508160088190555080600a81905550600060098190555060006004819055506000600581905550600073ffffffffffffffffffffffffffffffffffffffff16600160009054906101000a900473ffffffffffffffffffffffffffffffffffffffff1673ffffffffffffffffffffffffffffffffffffffff16141561012f5733600160006101000a81548173ffffffffffffffffffffffffffffffffffffffff021916908373ffffffffffffffffffffffffffffffffffffffff1602179055505b83600060016101000a81548173ffffffffffffffffffffffffffffffffffffffff021916908373ffffffffffffffffffffffffffffffffffffffff16021790555060008060006101000a81548160ff0219169083600281111561018e57fe5b0217905550505050505061115f806101a76000396000f3fe6080604052600436106100f1576000357c0100000000000000000000000000000000000000000000000000000000900463ffffffff1680630bc1d08a146100f657806311da60b41461014d5780631998aeef146101645780631d0806ae1461016e57806322f8e5661461019957806327793f87146101d45780633c03d8be1461020d5780633d9b2ae614610264578063590e1ae3146102bb5780635f8909bd146102d257806378e97925146102fd5780637d8bdb8a146103285780638ee5f77f14610353578063cc7d1a0f1461036a578063d18e81b314610395578063db341765146103c0578063fa9cbf12146103eb575b600080fd5b34801561010257600080fd5b5061010b610442565b604051808273ffffffffffffffffffffffffffffffffffffffff1673ffffffffffffffffffffffffffffffffffffffff16815260200191505060405180910390f35b34801561015957600080fd5b50610162610468565b005b61016c6105d8565b005b34801561017a57600080fd5b50610183610a31565b6040518082815260200191505060405180910390f35b3480156101a557600080fd5b506101d2600480360360208110156101bc57600080fd5b8101908080359060200190929190505050610a37565b005b3480156101e057600080fd5b506101e9610aba565b604051808260028111156101f957fe5b60ff16815260200191505060405180910390f35b34801561021957600080fd5b50610222610acc565b604051808273ffffffffffffffffffffffffffffffffffffffff1673ffffffffffffffffffffffffffffffffffffffff16815260200191505060405180910390f35b34801561027057600080fd5b50610279610af2565b604051808273ffffffffffffffffffffffffffffffffffffffff1673ffffffffffffffffffffffffffffffffffffffff16815260200191505060405180910390f35b3480156102c757600080fd5b506102d0610b18565b005b3480156102de57600080fd5b506102e7610ce7565b6040518082815260200191505060405180910390f35b34801561030957600080fd5b50610312610ced565b6040518082815260200191505060405180910390f35b34801561033457600080fd5b5061033d610cf3565b6040518082815260200191505060405180910390f35b34801561035f57600080fd5b50610368610cf9565b005b34801561037657600080fd5b5061037f611040565b6040518082815260200191505060405180910390f35b3480156103a157600080fd5b506103aa611046565b6040518082815260200191505060405180910390f35b3480156103cc57600080fd5b506103d561104c565b6040518082815260200191505060405180910390f35b3480156103f757600080fd5b50610400611052565b604051808273ffffffffffffffffffffffffffffffffffffffff1673ffffffffffffffffffffffffffffffffffffffff16815260200191505060405180910390f35b600360009054906101000a900473ffffffffffffffffffffffffffffffffffffffff1681565b610470611078565b60028081111561047c57fe5b6000809054906101000a900460ff16600281111561049657fe5b1415156104a257600080fd5b600060019054906101000a900473ffffffffffffffffffffffffffffffffffffffff1673ffffffffffffffffffffffffffffffffffffffff163373ffffffffffffffffffffffffffffffffffffffff16148061054b5750600160009054906101000a900473ffffffffffffffffffffffffffffffffffffffff1673ffffffffffffffffffffffffffffffffffffffff163373ffffffffffffffffffffffffffffffffffffffff16145b151561055657600080fd5b600160009054906101000a900473ffffffffffffffffffffffffffffffffffffffff1673ffffffffffffffffffffffffffffffffffffffff166108fc3073ffffffffffffffffffffffffffffffffffffffff16319081150290604051600060405180830381858888f193505050501580156105d5573d6000803e3d6000fd5b50565b6105e0611078565b600060028111156105ed57fe5b6000809054906101000a900460ff16600281111561060757fe5b1415156106e9573373ffffffffffffffffffffffffffffffffffffffff166108fc349081150290604051600060405180830381858888f19350505050158015610654573d6000803e3d6000fd5b506040517f08c379a00000000000000000000000000000000000000000000000000000000081526004018080602001828103825260328152602001807f41756374696f6e206861732066696e69736865642c2063616e6e6f742062696481526020017f2e2052657475726e696e672066756e64732e000000000000000000000000000081525060400191505060405180910390fd5b6007543410156107f4573373ffffffffffffffffffffffffffffffffffffffff166108fc349081150290604051600060405180830381858888f19350505050158015610739573d6000803e3d6000fd5b506040517f08c379a00000000000000000000000000000000000000000000000000000000081526004018080602001828103825260478152602001807f496e697469616c20626964206e6f7420686967686572207468616e20696e697481526020017f69616c2070726963652e2052657475726e696e672066756e647320746f20626981526020017f646465722e2e2e0000000000000000000000000000000000000000000000000081525060600191505060405180910390fd5b600a5460065401341015610903573373ffffffffffffffffffffffffffffffffffffffff166108fc349081150290604051600060405180830381858888f19350505050158015610848573d6000803e3d6000fd5b506040517f08c379a00000000000000000000000000000000000000000000000000000000081526004018080602001828103825260438152602001807f4d696e696d756d20707269636520696e6372656d656e74206e6f74207361746981526020017f73666965642e2052657475726e696e672066756e647320746f2062696464657281526020017f2e2e2e000000000000000000000000000000000000000000000000000000000081525060600191505060405180910390fd5b600073ffffffffffffffffffffffffffffffffffffffff16600260009054906101000a900473ffffffffffffffffffffffffffffffffffffffff1673ffffffffffffffffffffffffffffffffffffffff161415156109de57600260009054906101000a900473ffffffffffffffffffffffffffffffffffffffff1673ffffffffffffffffffffffffffffffffffffffff166108fc343073ffffffffffffffffffffffffffffffffffffffff1631039081150290604051600060405180830381858888f193505050501580156109dc573d6000803e3d6000fd5b505b3460068190555033600260006101000a81548173ffffffffffffffffffffffffffffffffffffffff021916908373ffffffffffffffffffffffffffffffffffffffff160217905550600554600981905550565b60075481565b60055481111515610ab0576040517f08c379a000000000000000000000000000000000000000000000000000000000815260040180806020018281038252601e8152602001807f54696d652063616e206f6e6c792062652077696e6420666f72776172642e000081525060200191505060405180910390fd5b8060058190555050565b6000809054906101000a900460ff1681565b600060019054906101000a900473ffffffffffffffffffffffffffffffffffffffff1681565b600160009054906101000a900473ffffffffffffffffffffffffffffffffffffffff1681565b610b20611078565b60016002811115610b2d57fe5b6000809054906101000a900460ff166002811115610b4757fe5b141515610b5357600080fd5b600073ffffffffffffffffffffffffffffffffffffffff16600260009054906101000a900473ffffffffffffffffffffffffffffffffffffffff1673ffffffffffffffffffffffffffffffffffffffff1614151515610bb157600080fd5b600260009054906101000a900473ffffffffffffffffffffffffffffffffffffffff1673ffffffffffffffffffffffffffffffffffffffff163373ffffffffffffffffffffffffffffffffffffffff161480610c5a5750600060019054906101000a900473ffffffffffffffffffffffffffffffffffffffff1673ffffffffffffffffffffffffffffffffffffffff163373ffffffffffffffffffffffffffffffffffffffff16145b1515610c6557600080fd5b600260009054906101000a900473ffffffffffffffffffffffffffffffffffffffff1673ffffffffffffffffffffffffffffffffffffffff166108fc3073ffffffffffffffffffffffffffffffffffffffff16319081150290604051600060405180830381858888f19350505050158015610ce4573d6000803e3d6000fd5b50565b60085481565b60045481565b60095481565b610d01611078565b60006002811115610d0e57fe5b6000809054906101000a900460ff166002811115610d2857fe5b141515610dc3576040517f08c379a000000000000000000000000000000000000000000000000000000000815260040180806020018281038252602e8152602001807f466f72206561726c7920736574746c65206f7574636f6d65206d75737420626581526020017f204e4f545f46494e49534845442e00000000000000000000000000000000000081525060400191505060405180910390fd5b600073ffffffffffffffffffffffffffffffffffffffff16600260009054906101000a900473ffffffffffffffffffffffffffffffffffffffff1673ffffffffffffffffffffffffffffffffffffffff1614151515610eb0576040517f08c379a000000000000000000000000000000000000000000000000000000000815260040180806020018281038252602b8152602001807f466f72206561726c7920736574746c652068696768657374206269646465722081526020017f6d7573742065786973742e00000000000000000000000000000000000000000081525060400191505060405180910390fd5b600160009054906101000a900473ffffffffffffffffffffffffffffffffffffffff1673ffffffffffffffffffffffffffffffffffffffff163373ffffffffffffffffffffffffffffffffffffffff16141515610f9b576040517f08c379a000000000000000000000000000000000000000000000000000000000815260040180806020018281038252602b8152602001807f466f72206561726c7920736574746c652073656e646572206d7573742062652081526020017f7468652073656c6c65722e00000000000000000000000000000000000000000081525060400191505060405180910390fd5b60026000806101000a81548160ff02191690836002811115610fb957fe5b0217905550600160009054906101000a900473ffffffffffffffffffffffffffffffffffffffff1673ffffffffffffffffffffffffffffffffffffffff166108fc3073ffffffffffffffffffffffffffffffffffffffff16319081150290604051600060405180830381858888f1935050505015801561103d573d6000803e3d6000fd5b50565b60065481565b60055481565b600a5481565b600260009054906101000a900473ffffffffffffffffffffffffffffffffffffffff1681565b6001600854026004546005540310151561113157600073ffffffffffffffffffffffffffffffffffffffff16600260009054906101000a900473ffffffffffffffffffffffffffffffffffffffff1673ffffffffffffffffffffffffffffffffffffffff1614151561110c5760026000806101000a81548160ff0219169083600281111561110257fe5b0217905550611130565b60016000806101000a81548160ff0219169083600281111561112a57fe5b02179055505b5b56fea165627a7a72305820cd786bfd1b6a23ed5c0b027a83d3ca05a06833a9b4241e0b5f84cff8879297fb0029",
  "source": "pragma solidity ^0.5.0;\n\ncontract Auction {\n\n    enum Outcome {\n        NOT_FINISHED,\n        NOT_SUCCESSFUL,\n        SUCCESSFUL\n    }\n\n    Outcome public outcome;\n\n    address public judgeAddress;\n    address payable public sellerAddress;\n\n    address payable public currentHighestBidderAddress;\n    address public finalHighestBidderAddress;\n\n    uint public startTime;\n    uint public currentTime;\n    uint public currentHighestBid;\n    uint public initialPrice;\n    uint public biddingPeriod;\n    uint public lastBidTimestamp;\n    uint public minimumPriceIncrement;\n\n    constructor(address _sellerAddress, address _judgeAddress, uint _initialPrice, uint _biddingPeriodSeconds, uint _minimumPriceIncrement) public {\n        initialPrice = _initialPrice;\n        biddingPeriod = _biddingPeriodSeconds;\n        minimumPriceIncrement = _minimumPriceIncrement;\n\n        lastBidTimestamp = 0;\n        startTime = 0;\n        currentTime = 0;\n\n        if (sellerAddress == address(0)) {\n            sellerAddress = msg.sender;\n        }\n        judgeAddress = _judgeAddress;\n\n        outcome = Outcome.NOT_FINISHED;\n    }\n\n    function bid() public payable {\n        refreshOutcome();\n\n        if(outcome != Outcome.NOT_FINISHED) {\n            msg.sender.transfer(msg.value);\n            revert(\"Auction has finished, cannot bid. Returning funds.\");\n        }\n\n        if(msg.value < initialPrice) {\n            msg.sender.transfer(msg.value);\n            revert(\"Initial bid not higher than initial price. Returning funds to bidder...\");\n        }\n\n        if(msg.value < currentHighestBid + minimumPriceIncrement) {\n            msg.sender.transfer(msg.value);\n            revert(\"Minimum price increment not satisfied. Returning funds to bidder...\");\n        }\n\n        if(currentHighestBidderAddress != address(0)) {\n            currentHighestBidderAddress.transfer(address(this).balance - msg.value);\n        }\n\n        currentHighestBid = msg.value;\n        currentHighestBidderAddress = msg.sender;\n        lastBidTimestamp = currentTime;\n    }\n\n    function settle() public {\n        refreshOutcome();\n\n        require(outcome == Outcome.SUCCESSFUL);\n        require(msg.sender == judgeAddress || msg.sender == sellerAddress);\n\n        sellerAddress.transfer(address(this).balance);\n    }\n\n    function settleEarly() public {\n        refreshOutcome();\n\n        require(outcome == Outcome.NOT_FINISHED, \"For early settle outcome must be NOT_FINISHED.\");\n        require(currentHighestBidderAddress != address(0), \"For early settle highest bidder must exist.\");\n        require(msg.sender == sellerAddress, \"For early settle sender must be the seller.\");\n\n        outcome = Outcome.SUCCESSFUL;\n\n        sellerAddress.transfer(address(this).balance);\n    }\n\n    function refund() public {\n        refreshOutcome();\n\n        require(outcome == Outcome.NOT_SUCCESSFUL);\n        require(currentHighestBidderAddress != address(0));\n        require(msg.sender == currentHighestBidderAddress || msg.sender == judgeAddress);\n\n        currentHighestBidderAddress.transfer(address(this).balance);\n    }\n\n    function refreshOutcome() internal {\n        if(currentTime - startTime >= biddingPeriod * 1 seconds) {\n            if(currentHighestBidderAddress != address(0)) {\n                outcome = Outcome.SUCCESSFUL;\n            } else {\n                outcome = Outcome.NOT_SUCCESSFUL;\n            }\n        }\n    }\n\n    function setCurrentTime(uint _currentTime) public {\n        require(_currentTime > currentTime, \"Time can only be wind forward.\");\n        currentTime = _currentTime;\n    }\n}\n",
  "sourcePath": "/Users/mateo/Desktop/FER/SEM3/PROJEKT_2/auction/contracts/Auction.sol",
  "compiler": {
    "name": "solc",
    "version": "0.5.0+commit.1d4f565a.Emscripten.clang"
  },
  "schemaVersion": "3.0.1",
  "updatedAt": "2019-01-09T15:16:03.332Z",
  "devdoc": {
    "methods": {}
  },
  "userdoc": {
    "methods": {}
  }
}